:020000040000FA
:100000000C94E1030C9409040C9409040C94090465
:100010000C9409040C9409040C9409040C9409042C
:100020000C9409040C9409040C94010B0C946A0BB5
:100030000C9409040C9409040C9409040C9409040C
:100040000C9409040C9409040C9409040C940904FC
:100050000C9409040C9409040C9409040C94AC0D40
:100060000C9409040C9409040C9409040C940904DC
:100070000C9409040C9409040C9409040C940904CC
:100080000C9409040C9409040C9409040C940904BC
:100090000C94F60D0C9409040C9409040C940904B6
:1000A0000C9409040C9409040C9409040000000049
:1000B000240027002A002D00300000000000250049
:1000C00028002B002E003100000000002300260035
:1000D00029002C002F000404040404030405020278
:1000E00002020403020202020606060606060404D1
:1000F0000202020404040802011040804010204063
:10010000804080080204018040201002011080100D
:10011000204040200000000200090F0000030401FD
:10012000000C0000000000000000000000000000C3
:10013000000000080B000202020000090400000198
:10014000020200000524001001052401010104241D
:10015000020605240600010705810310004009047A
:100160000100020A00000007050202400000070526
:1001700083024000000403090412010002EF02019F
:10018000409A230E800001010203014164616672FE
:1001900075697400497473794269747379203332D4
:1001A00075342035562031364D487A00756E6B6EA9
:1001B0006F776E2063686970004652414D5F494415
:1001C00000424D503038352C424D413138302C42B0
:1001D0004D503238302C4D5335363131004D53357A
:1001E0003630372C4D53353631312C4D533536336F
:1001F000372C424D5032383000485431364B33336F
:1002000000485431364B3333005346453753454746
:100210002C485431364B333300485431364B33334A
:1002200000517769696320427574746F6E004C5396
:100230004D39445330004C534D39445331004D50E7
:1002400055363035302C4D5055393035302C4D50D9
:1002500055393235302C495447333730312C4C33F3
:10026000473432303044004453313330372C445318
:10027000333233312C4D5055363035302C4D5055AE
:10028000393035302C4D5055393235302C495447A2
:10029000333230302C495447333730312C4C534DA6
:1002A000394453302C4C334734323030440041749D
:1002B0006C6173457A6F5254440041746C617345AC
:1002C0007A6F4543004D4350343732352C41746CBE
:1002D0006173457A6F5048004C696461724C69746F
:1002E000652C4D4350343732352C41746C61734565
:1002F0007A6F4F5250004D4350343732352C417491
:100300006C6173457A6F444F004D504C3331313539
:100310002C4D4350343732352C4D4350343732381E
:100320002C544541353736372C5369353335310038
:100330004D505231323100545041323031362C4D13
:100340004158323131303000454550524F4D004513
:100350004550524F4D00454550524F4D0045455078
:10036000524F4D004144584C3334352C4545505282
:100370004F4D004E756E6368756B2C454550524F5E
:100380004D00454550524F4D00454550524F4D2C64
:100390004652414D00414453313131352C544D507A
:1003A0003130322C424E4F3038302C5177696963EE
:1003B000204B657970616400414453313131352CF3
:1003C0005177696963204B657970616400414453DA
:1003D000313131352C54534C323536312C50434663
:1003E0003835393100414453313131352C504E3597
:1003F00033322C544D503130322C4C4D37352C503B
:10040000434638353931005043413936383500508C
:1004100043413936383500504341393638352C2080
:10042000534854335800504341393638352C205303
:100430004854335800504341393638350050434111
:10044000393638350053544D50453631302C5043F1
:10045000413936383500504341393638352C5369E7
:10046000373032312C4D5338363037005353443106
:1004700033303600535344313330362C4469676986
:10048000737061726B4F4C45440054534C32353697
:10049000312C2041504453393936300052413838DC
:1004A00037352C4654363230362C4D415839383396
:1004B0003930004D415831313631362C4D415831AB
:1004C00031363137004D415831313631322C4D41C2
:1004D000583131363133004D415831313631342CB9
:1004E0004D415831313631352C5369373231300076
:1004F0005369373231300053693732313000536934
:1005000037323130004D4350343458582065506FE5
:1005100074004D4350343458582065506F74004D6A
:100520004350343458582065506F74004D43503454
:100530003458582065506F74004341503131383879
:10054000005347544C353030302C43415031313812
:10055000380054534C323536312C564C3631383005
:100560002C54534C323536312C54534C32353931AE
:100570002C424E4F3035352C434150313138380004
:10058000424E4F3035352C454D373138302C4341B4
:100590005031313838004D435032333031372C4DE3
:1005A000435032333030382C504346383537342CB2
:1005B0004C4344313678322C4469676F6C6544692A
:1005C00073706C6179004D435032333031372C4DAC
:1005D000435032333030382C5043463835373400AE
:1005E0004D435032333031372C4D4350323330305D
:1005F000382C50434638353734004D435032333071
:1006000031372C4D435032333030382C504346383C
:10061000353734004D435032333031372C4D435051
:1006200032333030382C50434638353734004D4360
:100630005032333031372C4D435032333030382C38
:1006400050434638353734004D435032333031371C
:100650002C4D435032333030382C504346383537E8
:1006600034004D435032333031372C4D4350323308
:100670003030382C504346383537342C46584153A7
:1006800032313030322C536F696C4D6F6973747531
:100690007265004C534D333033442C484D4335384C
:1006A00038334C2C46584F53383730302C4C495344
:1006B00033445348004C534D333033442C4C534D4A
:1006C000394453302C4144584C3334352C4D4D4132
:1006D000373435354C2C4C534D394453312C4C491F
:1006E0005333445348004C4953334D444C00574D09
:1006F00038373331004C534D3330332C4C4953335E
:100700003331444C48004C4953333331444C480056
:1007100056434E4C343030302C414B343535380054
:100720005369343731330043533432373200414B4D
:100730003839363300534D427573426174746572B3
:10074000793F005347544C353030300041533339F2
:100750003335004153333933350041533339333561
:1007600000646F6E650A004E6F2049324320646555
:10077000766963657320666F756E640A00556E6BEB
:100780006E6F776E206572726F7220617420616483
:100790006472657373203078004465766963652000
:1007A000666F756E64206174206164647265737332
:1007B000203078005363616E6E696E672E2E2E00B6
:1007C0000E0F11241FBECFEFDAE0DEBFCDBF12E067
:1007D000A0E0B1E0E4E8F0E302C005900D92A23B96
:1007E000B107D9F724E0A2EBB2E001C01D92AE3010
:1007F000B207E1F713E0C1EED3E004C02197FE0198
:100800000E943A18C03ED107C9F70E94390F0C94D4
:1008100040180C9400002091AD0381E0213208F0D3
:1008200040C0809189038111FCCF8091AC0392E09C
:100830009093890391E0909388039FEF90938703AF
:100840001092860320938503ACE8B3E0E5E6F3E07D
:1008500090E029132DC01092640390916403880FD7
:10086000892B8093640380916303813029F5109272
:100870006303809164038093BB0085EC8093BC008C
:10088000809189038230E1F3809187038F3FB1F03B
:10089000809187038032A1F080918703803391F0AB
:1008A00084E010928B031092AD0310928A03089596
:1008B0003D9131939F5FCDCF85EEE0CF80E0F1CFCA
:1008C00082E0EFCF83E0EDCFCF93C62FA0910B0452
:1008D000B0910C0490910A0421E020938A03909334
:1008E000AC0310928B031092AD03ED91FC91119724
:1008F0000190F081E02D682FCD01099580910B04C6
:1009000090910C04DC01ED91FC910190F081E02DBF
:100910006C2F09950E940B04882331F082E88093A4
:100920000D0480E0CF91089510920D0481E0FACF7C
:10093000909189039111FCCF91E09093890390935A
:1009400088032FEF2093870310928603260F2093AE
:1009500085039093640390916403880F892B80939F
:100960006403809163038130D9F410926303809112
:1009700064038093BB0085EC8093BC008091890365
:100980008130E1F380918603861710F4609186032D
:10099000A5E6B3E0E3E4F3E080E0861303C0089546
:1009A00085EEEACF9D9191938F5FF7CFCF93DF9341
:1009B000883029F481E880930D0480E036C0D62F7A
:1009C000C82F80910B0490910C0420910A0431E00F
:1009D00030938A032093AC0310928B031092AD03E3
:1009E000DC01ED91FC910190F081E02D69E0099529
:1009F0000E940B048823E1F082E880930D0480E0DC
:100A000090910D049111D9CF61E070E001C0660FA3
:100A1000CA95EAF7DD2329F1682B89E00E94640476
:100A200081E090910D049111C8CFDF91CF9108958D
:100A300010920D0461E080910A040E9498041092C3
:100A40004203809341038130B9F680910B04909169
:100A50000C04DC01ED91FC910284F385E02D0995F5
:100A6000CFCF60956823D9CFFC01809140038823C4
:100A700009F13FB7F89482E08093E9002091F200F9
:100A8000822F90E01816190614F481E090E0882374
:100A900031F044E640933F034091F100408322232C
:100AA00039F02091F200211103C02BE62093E800D9
:100AB0003FBF08958FEF9FEF08952FB7F89483E01D
:100AC0008093E9009091E800892F807295FF04C01F
:100AD0009091F20080E4891B2FBF08958091370325
:100AE00081110DC082E08093330384E0809334034E
:100AF000109236031092350381E08093370383E32D
:100B000093E008954091FC025091FD022091FA0279
:100B10003091FB0242175307B4F49091E8009570AE
:100B2000E1F39091E80092FD19C08093F10080916B
:100B3000FC029091FD0201968F739927892B19F47D
:100B40008EEF8093E8008091FC029091FD02019667
:100B50009093FD028093FC0281E0089580E0089567
:100B6000EF92FF920F931F93CF93DF93F82E192FDD
:100B7000E62E042F81E0860F880F0E94820583E015
:100B80000E948205CF2DD12FEC0EFD2EF11CCE152B
:100B9000DF05B9F007FF13C0FE0184910E948205B2
:100BA000182F80E00E948205812321968111EFCFCA
:100BB000DF91CF911F910F91FF90EF900895888161
:100BC000EDCF81E0F5CFDF92EF92FF920F931F936D
:100BD000CF93DF93D82E8A01EB017B01E40EF51E43
:100BE000CE15DF0559F0D7FE12C0FE0184910E9498
:100BF000820521968111F4CF0FEF1FEFC801DF911D
:100C0000CF911F910F91FF90EF90DF900895888111
:100C1000EECF0F931F93CF93DF931F92CDB7DEB725
:100C200082E0898342E450E063E371E080E80E945F
:100C3000E3050E946E05DC0112960D911C910115D1
:100C4000110589F0D801ED91FC910280F381E02D2E
:100C5000BE016F5F7F4FC801099597FD04C0F80181
:100C600000851185ECCF89810F90DF91CF911F9185
:100C70000F910895CF93DF931F92CDB7DEB76983AD
:100C8000DC01ED91FC910280F381E02D41E050E028
:100C9000BE016F5F7F4F09950F90DF91CF9108954F
:100CA0000F931F93CF93DF938C01D0E0C0E0F80146
:100CB000EC0FFD1F6491662341F08EEA93E00E94E1
:100CC0003A06892B11F02196F2CFCE01DF91CF9118
:100CD0001F910F91089583E08093E9008091F200C5
:100CE000882319F08AE38093E80008950E945D0547
:100CF00090E00895CF93DF931F92CDB7DEB7FC014C
:100D00008485958597FD08C02FEF3FEF35872487B1
:100D10000F90DF91CF910895CE0101960E94340586
:100D2000019719F4898190E0F3CF8FEF9FEFF0CF17
:100D30000F931F93CF93DF931F92CDB7DEB78C0134
:100D4000FC018485958597FF0BC0CE0101960E941A
:100D50003405019771F4898190E0F80195878487C3
:100D6000F801848595850F90DF91CF911F910F91A8
:100D700008958FEF9FEFF1CFFC018485958597FD56
:100D80000BC09FB7F89482E08093E9008091F20055
:100D90009FBF90E0019608959FB7F89482E08093FA
:100DA000E9008091F2009FBF90E0089581508F305C
:100DB00008F047C0E82FF0E0E052F94F0C943A18E1
:100DC000FD060107EF06F506F906210721072107B1
:100DD00004070A070E071207180721071C0780914E
:100DE00080008F77809380000895809180008F7DB0
:100DF000F9CF80918000877FF5CF84B58F7784BD50
:100E0000089584B58F7DFBCF809190008F7780937C
:100E100090000895809190008F7DF9CF809190008F
:100E2000877FF5CF8091C0008F778093C0000895B1
:100E30008091C0008F7DF9CF8091C200877F809321
:100E4000C2000895CF93DF93282F30E0F901EC5EC4
:100E5000FE4F8491F901EB50FF4FD491F901EA5212
:100E6000FF4FC491CC23A1F081110E94D606EC2F34
:100E7000F0E0EE0FFF1FE853FF4FA591B491EC9106
:100E8000ED2381E090E009F480E0DF91CF910895B7
:100E900080E090E0FACF1F93CF93DF93282F30E0CC
:100EA000F901EC5EFE4F8491F901EB50FF4FD491B4
:100EB000F901EA52FF4FC491CC23A9F0162F8111FA
:100EC0000E94D606EC2FF0E0EE0FFF1FE654FF4F16
:100ED000A591B4918FB7F894EC91111108C0D095F9
:100EE000DE23DC938FBFDF91CF911F910895DE2B1E
:100EF000F8CFCF93DF9390E0FC01EB50FF4F2491AC
:100F00008A529F4FFC0184918823D1F090E0880F92
:100F1000991FFC01E455FF4FA591B491FC01E654E3
:100F2000FF4FC591D49161110EC09FB7F8948C9179
:100F3000E22FE0958E238C932881E223E8839FBFE4
:100F4000DF91CF9108958FB7F894EC91E22BEC9359
:100F50008FBFF6CF3FB7F8948091F6029091F702D9
:100F6000A091F802B091F90226B5A89B05C02F3FC9
:100F700019F00196A11DB11D3FBFBA2FA92F982FBF
:100F80008827BC01CD01620F711D811D911D42E0BA
:100F9000660F771F881F991F4A95D1F708958F9282
:100FA0009F92AF92BF92CF92DF92EF92FF924B014E
:100FB0005C010E94AA076B017C010E94AA076C19C0
:100FC0007D098E099F09683E734081059105A8F34C
:100FD00021E0821A9108A108B10888EEC80E83E0CA
:100FE000D81EE11CF11C81149104A104B10429F75D
:100FF000FF90EF90DF90CF90BF90AF909F908F9039
:1010000008958F929F92AF92BF92CF92DF92EF920C
:10101000FF920F931F93CF93DF936C017B018A01A3
:1010200080910B01882309F45BC0809140038823E1
:1010300009F456C08091000380FF05C08091E00054
:1010400082608093E000E801B12C8AEFA82E93E043
:10105000892E2AE3922E209711F4BB20D9F10E9409
:101060005D0581110AC0AA94AA20D1F161E070E067
:1010700080E090E00E94CF07EECF8C171D0611F0A4
:101080000CF08C2F9FB7F8948092E9002091E80033
:1010900025FD02C09FBFDFCF282F30E0C21BD30B3E
:1010A000F701815020F041914093F100FACFE20E18
:1010B000F31EBB2021F09092E800B12CEBCF809181
:1010C000E80085FDE7CF9092E800BB24B394209719
:1010D00009F3F3CF84E68093FF02101611063CF06B
:1010E00081E090E0F6019383828310E000E0C80184
:1010F000DF91CF911F910F91FF90EF90DF90CF90F4
:10110000BF90AF909F908F90089585ED8093BC0025
:101110008091BC0084FDFCCF109289030895613258
:1011200098F420918903243089F46093D202282F07
:10113000A2EBB2E0FC018E2F821B861710F080E03C
:10114000089581918D93F7CF81E0089582E008950D
:101150001092890381E0809388031092630361E019
:1011600082E00E944B0761E083E00E944B07E9EBBD
:10117000F0E080818E7F808380818D7F808388E412
:101180008093B80085E48093BC0008950895E091B1
:10119000420380914103E81730F4F0E0ED5BFC4F2F
:1011A000808190E008958FEF9FEF08959091420322
:1011B000809141032FEF3FEF981748F4E92FF0E0BB
:1011C000ED5BFC4F208130E09F5F90934203C901AB
:1011D00008958091410390914203891B990B0895D2
:1011E000CF92DF92EF92FF920F931F93CF93DF93F3
:1011F0007C01CB018A0120918A03222389F0EB0133
:101200006B01C40ED51ECC15DD0569F06991D701BF
:10121000ED91FC910190F081E02DC7010995F3CF8C
:10122000642F0E948F08C801DF91CF911F910F9109
:10123000FF90EF90DF90CF900895CF93DF931F92B0
:10124000CDB7DEB7698320918A032223F9F020917C
:10125000AD03203258F021E030E0FC0133832283DB
:1012600090E080E00F90DF91CF91089580918B0303
:10127000E82FF0E0E457FC4F998190838F5F8093D3
:101280008B038093AD0381E090E0ECCF61E0CE0171
:1012900001960E948F08F7CF90E080E00895CF93E9
:1012A000C42F91E090938A038093AC0310928B0338
:1012B0001092AD038EEF93E00E941D096C2F8EEF0C
:1012C00093E00E941D09CF910C940B04CF92DF9202
:1012D000EF92FF920F931F93CF93DF93182F04E0A9
:1012E000080F8BE2C82E83E0D82EEE24E394F12C75
:1012F000F60181916F01882309F47DC0F701EE5E4C
:10130000FE4FC081D0E0412F61E4CE010E944F0921
:10131000402F62E4CE010E944F09412F63E4CE01C9
:101320000E944F09402F64E4CE010E944F09412FD3
:1013300065E4CE010E944F09402F66E4CE010E9471
:101340004F09412F67E4CE010E944F09402F68E406
:10135000CE010E944F09412F69E4CE010E944F093E
:10136000402F6AE4CE010E944F09412F6BE4CE0169
:101370000E944F09402F6CE4CE010E944F09412F7B
:101380006DE4CE010E944F09402F6EE4CE010E9411
:101390004F09412F6FE4CE010E944F09402F60E5B5
:1013A000CE010E944F09412F61E5CE010E944F09F5
:1013B000402F62E5CE010E944F09412F63E5CE0127
:1013C0000E944F09402F64E5CE010E944F09412F32
:1013D00065E5CE010E944F09402F66E5CE010E94CF
:1013E0004F09412F67E5CE010E944F09402F68E564
:1013F000CE010E944F09FFEFEF1AFF0A84E0E816C2
:10140000F10409F075CFDF91CF911F910F91FF90FB
:10141000EF90DF90CF9008951F93CF93DF93CDB7D8
:10142000DEB72C970FB6F894DEBF0FBECDBF62E0DB
:101430000E94980410924203809341038EEF93E040
:101440000E94D608182F8EEF93E00E94D60820E065
:10145000382F212BFE01319650E040E080E0A1E0E2
:10146000B0E091E0BD01042E02C0660F771F0A9420
:10147000E2F762237323672BA9F06081611101C039
:1014800081E090834F5F5F4F31964C30510551F7AB
:101490002C960FB6F894DEBF0FBECDBFDF91CF9173
:1014A0001F9108951082EECFFC0101900020E9F712
:1014B0003197AF01481B590BBC018EEA93E00C94A5
:1014C0000108CF93DF930E945006EC018BE391E07B
:1014D0000E94540A8C0F9D1FDF91CF9108958F9227
:1014E0009F92AF92BF920F931F93CF93DF93CDB78D
:1014F000DEB7A1970FB6F894DEBF0FBECDBF19A21D
:10150000423008F44AE08E010F5D1F4F842E912C6B
:10151000B12CA12CA50194010E941818E62FB90145
:10152000CA01EA30F4F4E05DD801EE938D01232B7B
:10153000242B252B79F790E080E0109719F0CD014E
:101540000E94540AA1960FB6F894DEBF0FBECDBF1D
:10155000DF91CF911F910F91BF90AF909F908F908F
:101560000895E95CE1CF0C94540ACF93DF930E9475
:10157000540AEC018BE391E00E94540A8C0F9D1FEA
:10158000DF91CF910895CF92DF92EF92FF92CF93A8
:10159000DF936C01990FEE08FF08F7FE19C06DE2AA
:1015A0008EEA93E00E943A06EC0166277727CB018A
:1015B0006C197D098E099F094AE00E946F0A8C0F01
:1015C0009D1FDF91CF91FF90EF90DF90CF90089516
:1015D0004AE0C701B601DF91CF91FF90EF90DF9015
:1015E000CF900C946F0ACF93DF930E94C30AEC0153
:1015F0008BE391E00E94540A8C0F9D1FDF91CF91E5
:1016000008951F920F920FB60F9211248F939F93FC
:101610008091E1009091E100937F9093E10083FF3E
:101620000FC01092E90091E09093EB001092EC0053
:1016300092E39093ED001092400398E09093F000B5
:1016400082FF1CC093E09093E9009091F2009923EF
:1016500019F09AE39093E8009091FF02992329F002
:101660009091FF0291509093FF0290913F03992334
:1016700029F090913F03915090933F0384FF18C04D
:101680008091E2008E7E81608093E2008091E10093
:101690008F7E8093E100809100038E7E8061809335
:1016A00000039F918F910F900FBE0F901F90189580
:1016B00080FFF7CF8091E2008E7E80618093E20010
:1016C0008091E1008E7E8093E100809100038E7E08
:1016D0008160E5CF1F920F920FB60F921124CF9227
:1016E000DF92EF92FF920F931F932F933F934F93AD
:1016F0005F936F937F938F939F93AF93BF93EF937A
:10170000FF93CF93DF93CDB7DEB76C97DEBFCDBF2E
:101710001092E9008091E80083FF2FC089E0FE016C
:101720007596EE2EDF2E815029F09091F100908376
:101730003196F9CF84E680933F0382EF8093E800EF
:101740008D8987FF39C09091E80090FFFCCF982FDA
:10175000907609F033C19E894F89588D2F89F88C76
:10176000911131C0803861F5809101038093F100BF
:101770001092F1008EEF8093E8006C960FB6F8940B
:10178000DEBF0FBECDBFDF91CF91FF91EF91BF9133
:10179000AF919F918F917F916F915F914F913F9109
:1017A0002F911F910F91FF90EF90DF90CF900F90AE
:1017B0000FBE0F901F9018959EEF9093E800C7CF33
:1017C0001092F100D5CF913059F48111D3CF41302F
:1017D000510581F6809101038D7F80930103CACF6B
:1017E000933049F48111C6CF4130510519F68091EB
:1017F00001038260F2CF953041F48091E80080FFD0
:10180000FCCF20682093E300B5CF963009F0A8C044
:101810000B8D1C8D22E01092E9001092FD021092B7
:10182000FC02F2122EC01092FB021092FA020E94E9
:1018300009061F8299E09983FA8291E09E8390EADB
:1018400098879AEF99872091FC023091FD02275FDB
:101850003F4F3C832B838D831092E9001092FD0251
:101860001092FC021093FB020093FA0249E050E050
:10187000BE016F5F7F4F80E00E94E3050E94090672
:1018800079CF1093FB020093FA020E946E05DC01EF
:1018900012960D911C910115110509F457C1D8013B
:1018A000ED91FC910480F581E02D6E2D7D2DC80118
:1018B0000995009709F045C1F80100851185EBCF26
:1018C000F3E0FF120EC08F89882309F440C08230F4
:1018D00061F440E867E184E991E00E94B00581117C
:1018E00049CF81E28093EB0048CF813029F440E872
:1018F00068E08BE891E0F1CF833099F70E946E05A4
:10190000DC011296ED90FC908E010F5F1F4F680175
:10191000E114F10479F0D701ED91FC910680F78193
:10192000E02DB801C7010995080F111DF701E084EA
:10193000F184EECFD8011C92F60101900020E9F766
:101940003197BF016C197D0940E0C601C6CF65E73C
:1019500071E0FB01449150E080E80E94E3050ACF6A
:10196000973009F4BECF983021F481E08093F100E4
:1019700001CF993009F0FECE837009F0B2CFEDE0CF
:10198000F1E081E031E096E32191222371F0809330
:10199000E9003093EB00DF0111972C912093EC00CC
:1019A0009093ED008F5F873079F78EE78093EA00A0
:1019B0001092EA008F8980934003DCCE8B8D9C8D42
:1019C0001092E9001092FD021092FC029093FB022B
:1019D0008093FA02898D81119AC08E899D89913AEE
:1019E00049F4813209F07DCF47E050E064E071E0D6
:1019F00080E0B3CF913209F074CF833269F48F89DC
:101A0000988DB0E0A0E08093000190930101A09335
:101A10000201B0930301AECE8032A9F48091E800B8
:101A200082FFFCCF88E0E4E0F1E0815029F0909162
:101A3000F10090833196F9CF84E680933F038BEFDA
:101A40008093E80097CE823209F094CE8F898093FC
:101A50000B01EEEFFFE7859194918B3F9C4D51F187
:101A6000E0E0F8E08091040190910501A091060169
:101A7000B0910701803B9440A105B105F1F480913C
:101A80000B0180FD1AC0EE3F8AE0F80789F587E771
:101A900097E791838083809160008093FE0288E1C4
:101AA0009BE00FB6F894A895809360000FBE9093CA
:101AB000600060CEEEEFFAE0D5CF8081918187376C
:101AC000974709F057CEA895809160008861809370
:101AD00060008091FE0280936000EE3F2AE0F207F2
:101AE00089F08091FE0A9091FF0A9183808342CE13
:101AF000808191818737980751F29093FF0A8093F4
:101B0000FE0AC5CF1092FF0A1092FE0A33CE0E9441
:101B10006E05DC0112960D911C910115110509F459
:101B2000E0CED801ED91FC910190F081E02D6E2D79
:101B30007D2DC801099581111DCEF8010085118503
:101B4000ECCF181619060CF415CECBCEF1E0FF122F
:101B5000B7CE69E771E0FDCE1F920F920FB60F92DC
:101B600011242F933F938F939F93AF93BF938091B3
:101B7000020390910303A0910403B09105033091F7
:101B8000F50223E0230F2D3758F50196A11DB11D55
:101B90002093F5028093020390930303A093040320
:101BA000B09305038091F6029091F702A091F8029C
:101BB000B091F9020196A11DB11D8093F602909398
:101BC000F702A093F802B093F902BF91AF919F91F1
:101BD0008F913F912F910F900FBE0F901F901895EE
:101BE00026E8230F0296A11DB11DD2CF1F920F929E
:101BF0000FB60F9211242F933F934F935F936F93E0
:101C00007F938F939F93AF93BF93EF93FF938091B5
:101C1000B900887F803609F44AC0F0F5883209F4AB
:101C2000A5C018F5803109F499C0B8F4882309F4E7
:101C3000F2C0883009F492C0FF91EF91BF91AF914B
:101C40009F918F917F916F915F914F913F912F91D4
:101C50000F900FBE0F901F901895883109F486C021
:101C6000803251F78093870314C0803409F49BC0FD
:101C700040F48033B9F38833F9F68093870385EC19
:101C8000AEC0803509F483C0883509F494C0883427
:101C900099F60E948508D0CF883909F48AC038F5B2
:101CA000883729F050F4883611F0803729F683E020
:101CB000809389031092F40255C0883809F479C0E2
:101CC000803919F0803809F0B7CF8091F402803262
:101CD00008F06FC0E091F40281E08E0F8093F4026F
:101CE0008091BB00F0E0EC52FD4F80833BC0803B15
:101CF00039F0D0F4803A09F477C0883A09F09CCFE3
:101D000084E0809389031092D3021092D202F0E013
:101D1000E0E009958091D20281110FC081E08093AB
:101D2000D2021092B20209C0803C09F4A8CF883CCC
:101D300009F4A5CF883B09F07FCFE091D30281E081
:101D40008E0F8093D302F0E0EE54FD4F808180939C
:101D5000BB009091D3028091D20229C0809164038C
:101D60008093BB0085EC8093BC0066CF9091860386
:101D700080918503981758F5E091860381E08E0FD6
:101D800080938603F0E0EB59FC4F8081E9CFE0912E
:101D9000860381E08E0F809386038091BB00F0E084
:101DA000EB59FC4F808390918603809185039817AF
:101DB000C8F285E8D8CFE091860381E08E0F80934A
:101DC00086038091BB00F0E0EB59FC4F808380914B
:101DD000880381115ECF81E08093630384EA80935E
:101DE000BC001092890328CF8091F402803230F435
:101DF000E091F402F0E0EC52FD4F10820E94850861
:101E00006091F40270E084ED92E0F0E0E0E009958A
:101E10001092F40234CF109287033BCFEEEAF3E046
:101E20001382128288EE93E0A0E0B0E08483958371
:101E3000A683B7832BE131E0318320832FEF3FEF7F
:101E400035872487EEEFF3E0138212828483958333
:101E5000A683B7838DE291E091838083AAE0B4E00A
:101E600080E28C931296FC93EE93119713961C923A
:101E70000895789484B5826084BD84B5816084BD02
:101E800085B5826085BD85B5816085BD80916E0018
:101E9000816080936E001092810080918100826049
:101EA0008093810080918100816080938100809186
:101EB0008000816080938000809191008260809397
:101EC00091008091910081608093910080919000B9
:101ED0008160809390008091C10084608093C100F4
:101EE0008091C10082608093C1008091C1008160B7
:101EF0008093C1008091C30081608093C300809172
:101F0000C00082608093C0008091C2008160809395
:101F1000C20080917A00846080937A0080917A0078
:101F2000826080937A0080917A00816080937A0049
:101F300080917A00806880937A001092400310921A
:101F40000103109200038091D70081608093D70035
:101F500080EA8093D80089B5806189BD89B58260A7
:101F600089BD09B400FEFDCF61E070E080E090E043
:101F70000E94CF078091D8008F7C80618093D80029
:101F80008091E000807F8093E0008091E1008E7E70
:101F90008093E1008DE08093E20061E085E00E94A3
:101FA000790761E087E00E94790761E089E00E949B
:101FB000790761E084E10E94790761E083E10E9492
:101FC000790761E082E10E94790761E08DE00E947B
:101FD000790760E08CE00E94790760E08BE00E9466
:101FE000790760E08AE00E94790761E08FE00E9453
:101FF000790761E080E10E94790761E08EE00E944C
:10200000790761E086E00E94790761E086E10E943D
:10201000790710924203109241030E94A808C3E17D
:10202000D1E03BE2E32E33E0F32E47E1842E41E0A2
:10203000942E8701AA24A3948991A0928A03809365
:10204000AC0310928B031092AD030E940B0481111C
:10205000A9C225E0B22E61E08DE00E944B0764E644
:1020600070E080E090E00E94CF0760E08DE00E9489
:102070004B0764E670E080E090E00E94CF07BA94DE
:10208000B110E9CFF801A0820F5F1F4F8C169D069B
:1020900099F601E010E0F70181917F01882309F4AE
:1020A000B9C0F801EE5EFE4FC081D0E040E06EE5C1
:1020B000CE010E944F0941E06BE2CE010E944F0920
:1020C00041E06CE2CE010E944F0940E06DE2CE019A
:1020D0000E944F0940E06EE2CE010E944F0941E0AC
:1020E0006FE2CE010E944F0941E060E3CE010E9401
:1020F0004F094FEF61E3CE010E944F0942E062E3D6
:10210000CE010E944F094EE061E4CE010E944F09CA
:1021100042E162E4CE010E944F094EE063E4CE0149
:102120000E944F0942E164E4CE010E944F094EE053
:1021300065E4CE010E944F0942E166E4CE010E94AF
:102140004F094EE067E4CE010E944F0942E168E486
:10215000CE010E944F094EE069E4CE010E944F0972
:1021600042E16AE4CE010E944F094EE06BE4CE01E9
:102170000E944F0942E16CE4CE010E944F094EE0FB
:102180006DE4CE010E944F0942E16EE4CE010E944F
:102190004F094EE06FE4CE010E944F0942E160E535
:1021A000CE010E944F094EE061E5CE010E944F0929
:1021B00042E162E5CE010E944F094EE063E5CE01A7
:1021C0000E944F0942E164E5CE010E944F094EE0B2
:1021D00065E5CE010E944F0942E166E5CE010E940D
:1021E0004F094EE067E5CE010E944F0942E168E5E4
:1021F000CE010E944F0944E06DE5CE010E944F09D7
:102200004CE06EE5CE010E944F094CE06EE5CE0138
:102210000E944F090F5F1F4F0430110509F03BCF9B
:1022200080912E03882329F11092420310924103DA
:1022300010928B031092AD030E94A80880910A04AB
:1022400091E090938A038093AC030E940B0488234F
:1022500009F4B7C182E880930D0460E080E00E9439
:10226000640410920D0460E089E00E9464041092FE
:102270000D0468EC70E080E090E00E94CF078FEFE3
:102280009FEF9093BB038093BA0390E0E92E90E018
:10229000F92EC1E02FB7F8948091020390910303C7
:1022A000A0910403B09105032FBF80932F03909357
:1022B0003003A0933103B093320380912B03882322
:1022C00009F48DC18AE50E940C0A8093280380914D
:1022D0002C03882309F486C18BE50E940C0A8093A5
:1022E000290380912D03882309F47FC18CE50E9486
:1022F0000C0A80932A0380912503882309F478C16E
:1023000080912F0390913003A0913103B09132035B
:102310004091190350911A0360911B0370911C03A3
:102320008C019D01041B150B260B370BB901A8016D
:102330004B3051056105710568F1109225038093BA
:10234000190390931A03A0931B03B0931C0360E03E
:1023500080E00E94D6048091250381111BC08091EA
:10236000260381111CC080912703811187C18091B0
:102370000603882309F482C160E086E00E944B07CF
:1023800060E086E10E944B0760E08DE00E944B0711
:102390001092060380912603882309F46FC180916F
:1023A0002F0390913003A0913103B09132034091FB
:1023B0001D0350911E0360911F03709120038C0137
:1023C0009D01041B150B260B370BB901A8014B30DF
:1023D00051056105710568F11092260380931D0374
:1023E00090931E03A0931F03B093200360E082E04C
:1023F0000E94D6048091250381111BC08091260381
:10240000811117C080912703811118C080910603A4
:10241000882309F479C160E086E00E944B0760E000
:1024200086E10E944B0760E08DE00E944B0710920E
:10243000060380912703882309F466C180912F0346
:1024400090913003A0913103B09132034091210368
:102450005091220360912303709124038C019D010C
:10246000041B150B260B370BB901A8014B30510586
:102470006105710560F11092270380932103909309
:102480002203A0932303B093240360E083E00E941F
:10249000D6048091250381111AC0809126038111F1
:1024A00016C080912703811112C0809106038823F2
:1024B00071F060E086E00E944B0760E086E10E94D8
:1024C0004B0760E08DE00E944B0710920603D0910D
:1024D0001303DD2309F45EC180912F039091300333
:1024E000A0913103B091320340910703509108034A
:1024F0006091090370910A03841B950BA60BB70B1F
:10250000C397A105B10508F445C18AE00E942207DE
:10251000892B09F03FC11092130360E084E00E9410
:10252000D60460E084E10E944B0760E08EE00E94E8
:102530004B0760E085E00E944B07D0911403D11156
:1025400066C180911703811106C08BE00E942207AB
:10255000019709F08DC180912F0390913003A091D4
:102560003103B0913203D111B8C110921703C09357
:10257000140380930B0390930C03A0930D03B0936B
:102580000E0361E087E00E944B0761E083E10E9457
:102590004B0761E080E10E944B0761E086E00E940A
:1025A000D60466C161E08DE00E944B0768EE73E0DF
:1025B00080E090E00E94CF0760E08DE00E944B0732
:1025C00063CD10920D0460E285E00E9464048823CC
:1025D00009F443CE6FEF86E00E9464043ECE109271
:1025E000280375CE109229037CCE10922A0383CE45
:1025F00080912803882309F4CDCE80912F039091F8
:102600003003A0913103B0913203409119035091EE
:102610001A0360911B0370911C038C019D01041B24
:10262000150B260B370BB901A80143305105610585
:10263000710508F4AFCEC0932503809319039093DE
:102640001A03A0931B03B0931C0361E080E00E9477
:10265000D604C09316038091060381119BCE61E0DE
:1026600086E00E944B0761E086E10E944B0761E033
:102670008DE00E944B07C09306038CCE8091290306
:10268000882309F4D6CE80912F0390913003A09136
:102690003103B091320340911D0350911E036091AC
:1026A0001F03709120038C019D01041B150B260B49
:1026B000370BB901A801433051056105710508F4D4
:1026C000B8CEC093260380931D0390931E03A0935E
:1026D0001F03B093200361E082E00E94D604C09300
:1026E0001703809106038111A4CE61E086E00E9469
:1026F0004B0761E086E10E944B0761E08DE00E949C
:102700004B07C093060395CE80912A03882309F4D2
:10271000DECE80912F0390913003A0913103B091D0
:102720003203409121035091220360912303709161
:1027300024038C019D01041B150B260B370BB901DB
:10274000A801433051056105710508F4C0CEC0935E
:1027500027038093210390932203A0932303B09334
:10276000240361E083E00E94D604C09318038091A3
:1027700006038111ACCE61E086E00E944B0761E068
:1027800086E10E944B0761E08DE00E944B07C093F9
:1027900006039DCE80911603882339F180912F0383
:1027A00090913003A0913103B0913203D11124C034
:1027B00010921603C09313038093070390930803AA
:1027C000A0930903B0930A0361E085E00E944B07E0
:1027D00061E084E10E944B0761E08EE00E944B07BC
:1027E00061E084E00E94D604A8CE8AE00E9422071D
:1027F000019709F0A2CED2CF10921603809307035F
:1028000090930803A0930903B0930A0396CE809196
:102810002F0390913003A0913103B0913203409186
:102820000B0350910C0360910D0370910E03841BF8
:10283000950BA60BB70BC397A105B10508F481CE84
:102840008BE00E942207892B09F07BCE10921403A3
:1028500060E086E00E94D60460E083E10E944B07BE
:1028600060E080E10E944B0760E087E00E944B0738
:10287000D0911503D1113CC080911803811106C07D
:102880008CE00E942207019709F063C080912F031A
:1028900090913003A0913103B0913203D1117AC0ED
:1028A00010921803C093150380930F0390931003A5
:1028B000A0931103B093120361E089E00E944B07DB
:1028C00061E082E10E944B0761E08FE00E944B07CC
:1028D00061E087E00E94D6043CC010921703809309
:1028E0000B0390930C03A0930D03B0930E03C0CF82
:1028F00080912F0390913003A0913103B091320366
:1029000040910F03509110036091110370911203D5
:10291000841B950BA60BB70BC397A105B10508F453
:10292000ABCF8CE00E942207892B09F0A5CF109233
:10293000150360E087E00E94D60460E082E10E9417
:102940004B0760E08FE00E944B0760E089E00E9447
:102950004B078EEA93E00E94BC060297A4F08EEA31
:1029600093E00E947A06D82F8EEA93E00E947A06BE
:10297000D43609F451C324F5D73309F441C3ACF478
:10298000D53309F435C3E114F10409F483CC0E9472
:10299000000080CC1092180380930F0390931003D3
:1029A000A0931103B0931203D4CFD93309F42EC3EB
:1029B000D23649F78FE792E00E94B50A8BE01DC33B
:1029C000DD3609F4D9C20CF0B5C0D63609F42AC3F5
:1029D000D936C9F684EB97E00E94610A812C912CCC
:1029E0005401839410E000E0D82DC0938A038092B4
:1029F000AC0310928B031092AD030E940B04811163
:102A0000A4C289E997E00E945006D03120F48EE3F9
:102A100091E00E94B30A40E1C501B4010E946F0A2F
:102A200080E491E00E94B30AD150DC3708F08AC2FA
:102A3000ED2FF0E0E25EFA4E0C943A189316B216BF
:102A4000B516A217A217A217A217A217A217B81697
:102A5000BB16BE16A217A217A217C116C416A2173C
:102A6000C716A217A217A217A217CA16CD16D016FC
:102A7000A217D316D616D916A217DC16DF16E21641
:102A8000E516E816EB16EE16F116F416F716FA161A
:102A9000FD1600170317061709170C170F17121743
:102AA000151718171B17A217A2171E172117A21701
:102AB000A21724172717A217A2172A172D173017A6
:102AC0003317361739173C173F1742174517481762
:102AD0004B17A217A217A217A2174E175117541778
:102AE00057175A175D17601763176617A2176917EC
:102AF000A217A217A217A217A2176C176F177217A7
:102B000075177817A2177B17A2177E1781178417DE
:102B10008717A217A217A2178A178D179017931756
:102B20009617A217A21799179C17A217A217A217F8
:102B3000A2179F17D03709F448C2D33709F023CF23
:102B40008AED91E00E94B30A80912B0390E00E94ED
:102B5000C30A86E392E00E94B30A80912C0390E0BE
:102B60000E94C30A86E392E00E94B30A80912D037B
:102B700090E00E94C30A86E392E00E94B30A80912B
:102B80002E0390E00E94F30A87EE91E00E94B30AC0
:102B90008091280390E00E94C30A86E392E00E949D
:102BA000B30A8091290390E00E94C30A86E392E071
:102BB0000E94B30A80912A0390E00E94F30A85EFF5
:102BC00091E00E94B30A8091250390E00E94C30A1D
:102BD00086E392E00E94B30A8091260390E00E946F
:102BE000C30A86E392E00E94B30A8091270390E033
:102BF0000E94F30A83E092E00E94B30A60911903F5
:102C000070911A0380911B0390911C034AE00E946B
:102C10006F0A86E392E00E94B30A60911D037091EF
:102C20001E0380911F03909120034AE00E946F0AC7
:102C300086E392E00E94B30A60912103709122031F
:102C400080912303909124034AE00E946F0A8BE352
:102C500091E00E94540A86E192E00E94B30A8091BA
:102C6000160390E00E94C30A86E392E00E94B30A32
:102C70008091170390E00E94C30A86E392E00E94CD
:102C8000B30A8091180390E00E94F30A8AE292E06E
:102C90000E94B30A8091130390E00E94C30A86E366
:102CA00092E00E94B30A8091140390E00E94C30A4C
:102CB00086E392E00E94B30A8091150390E00E949F
:102CC000F30A88E392E00E94B30A609107037091CF
:102CD00008038091090390910A034AE00E946F0A59
:102CE00086E392E00E94B30A60910B0370910C039B
:102CF00080910D0390910E034AE00E946F0A86E3D3
:102D000092E00E94B30A60910F03709110038091CA
:102D10001103909112034AE00E946F0A8BE391E045
:102D20000E94540A30CE8AE597E00E94500684E45F
:102D300091E00E94B50A0F5F1F4F2FEF821A920A8F
:102D4000A20AB20A3FE783169104A104B10409F074
:102D50004BCE87E697E0012B11F081E697E00E94C9
:102D6000610A11CE83E597E0E0CF8CE497E0DDCFF8
:102D700083E497E0DACF85E397E0D7CF8EE297E060
:102D8000D4CF87E297E0D1CF80E297E0CECF80E149
:102D900097E0CBCF86E097E0C8CF85EF96E0C5CF30
:102DA0008EEE96E0C2CF86EE96E0BFCF85EB96E042
:102DB000BCCF83E996E0B9CF82E696E0B6CF88E44F
:102DC00096E0B3CF8EE296E0B0CF84E196E0ADCF4F
:102DD0008AEF95E0AACF80EE95E0A7CF86EC95E04C
:102DE000A4CF86E995E0A1CF80E895E09ECF82E56B
:102DF00095E09BCF81E495E098CF89E395E095CF6E
:102E00008CE295E092CF8FE195E08FCF82E195E063
:102E10008CCF85E095E089CF8EEF94E086CF87EF69
:102E200094E083CF80EF94E080CF87ED94E07DCF76
:102E300085EC94E07ACF83EB94E077CF8CE994E053
:102E400074CF8AE894E071CF84E794E06ECF8CE68B
:102E500094E06BCF86E594E068CF85E494E065CF9D
:102E60008DE394E062CF85E394E05FCF86E294E067
:102E70005CCF87E194E059CF8FE094E056CF87E0B4
:102E800094E053CF85EE93E050CF8DEC93E04DCF9F
:102E900088EB93E04ACF85E993E047CF89E893E058
:102EA00044CF82E893E041CF83E793E03ECF84E6CE
:102EB00093E03BCF8DE593E038CF86E593E035CFC7
:102EC0008FE493E032CF88E493E02FCF87E393E061
:102ED0002CCF80E393E029CF89E093E026CF86EFE3
:102EE00092E023CF88ED92E020CF85EC92E01DCFD9
:102EF0008AEB92E01ACF8EEA92E017CF87E692E053
:102F000014CF8EE392E011CF86E392E00ECF8EE2F3
:102F100092E00BCF81E292E008CF89E192E005CF09
:102F200089E092E002CF81E092E0FFCE89EF91E06C
:102F3000FCCE8DED91E0F9CE81EC91E0F6CE89EBFF
:102F400091E0F3CE8CEA91E0F0CE843009F0F5CE3A
:102F50008DE797E00E945006D03120F48EE391E097
:102F60000E94B30A40E1C501B4010E946F0A8BE3DD
:102F700091E00E94540AE1CE86E491E00E94B50AF5
:102F80008EE491E00E94B50A8AE591E00E94B50ABC
:102F900088E691E00E94B50A84E791E00E94B50AB4
:102FA00085E891E00E94B50A86E991E00E94B50AA1
:102FB00087EA91E00E94B50A88EB91E00E94B50A89
:102FC00089EC91E00E94B50ADECCD0E061E08D2F63
:102FD0000E94D6046AEF70E080E090E00E94CF0784
:102FE00060E08D2F0E94D604DF5FD83079F7CBCC1C
:102FF0008CE492E00E94B50A85E00E946609C3CC89
:103000008DE592E00E94B50A87E0F7CF8EE692E068
:103010000E94B50A89E0F1CF80E992E00E94B50AEA
:103020008DE0EBCF81EA92E00E94B50A8FE0E5CF18
:10303000A1E21A2EAA1BBB1BFD010DC0AA1FBB1FBC
:10304000EE1FFF1FA217B307E407F50720F0A21B2E
:10305000B30BE40BF50B661F771F881F991F1A949B
:1030600069F760957095809590959B01AC01BD01C5
:10307000CF010895EE0FFF1F0590F491E02D099404
:10308000F894FFCFFFFFFFFF00E100000000000009
:1030900000C180810000005A5B5C20000000003A03
:1030A00006010876066B06BC067A06980600000044
:1030B000001D09F0084C09C608E908D608C7080D24
:1030C0000A0030002020280029006D3A206D656E2E
:1030D0007500693A20693263207363616E00733A48
:1030E00020626F617264737461746500703A207459
:1030F000657374204D435000353A205468726573EF
:10310000686F6C64203D203500373A205468726542
:1031100073686F6C64203D203700393A2054687220
:103120006573686F6C64203D203900623A205468F2
:10313000726573686F6C64203D206200643A2054AD
:1031400068726573686F6C64203D206400663A2085
:103150005468726573686F6C64203D206600493264
:1031600063207374617465733A20004C69636B204B
:103170007374617465733A20004C69636B207075D9
:103180006C7365733A20004C69636B2070756C73C7
:10319000652074696D65733A2000536F6C696E6FBA
:1031A0006964207265616479206F6E3A2000536F04
:1031B0006C696E6F6964206F6E3A2000536F6C69A2
:1031C0006E6F6964206F6E2074696D65733A2000BC
:1031D0005468726573686F6C64203D2030783035B8
:1031E000005468726573686F6C64203D20307830DD
:1031F00037005468726573686F6C64203D203078C6
:103200003039005468726573686F6C64203D2030FB
:10321000783062005468726573686F6C64203D207A
:1032200030783064005468726573686F6C64203D58
:063230002030783066003A
:1070000055C000006EC000006CC000006AC00000E7
:1070100068C0000066C0000064C0000062C00000DC
:1070200060C000005EC0000065C400005AC00000DF
:1070300058C0000056C0000054C0000052C00000FC
:1070400050C000004EC000004CC000004AC000000C
:1070500048C0000046C0000044C0000042C000001C
:1070600040C000003EC000003CC000003AC000002C
:1070700038C0000036C0000034C0000032C000003C
:1070800030C000002EC000002CC000002AC000004C
:1070900028C0000026C0000024C0000022C000005C
:1070A00020C000001EC000001CC0000011241FBE34
:1070B000CFEFDAE0DEBFCDBF11E0A0E0B1E0EEE25D
:1070C000FEE702C005900D92AC38B107D9F711E088
:1070D000ACE8B1E001C01D92AD39B107E1F7F2D2E1
:1070E000A4C68ECF84E08093E9000DC08091E800B3
:1070F0008B778093E80003C08EB3882351F0809192
:10710000E80082FFF9CF8091E80085FFEFCF809102
:10711000F1000895982F83E08093E9008091E800C2
:1071200085FD0DC08091E8008E778093E80003C054
:107130008EB3882331F08091E80080FFF9CF9093DF
:10714000F10008954F925F926F927F928F929F927B
:10715000AF92BF92CF92DF92EF92FF920F931F9365
:10716000CF93DF9384E08093E9008091E80082FF71
:1071700044C210928C01B6DF082F8C3409F43BC056
:107180008035C9F1843529F0853429F410920F0136
:1071900032C0A8DF30C0843721F484E4BBDF80E054
:1071A00002C2813611F489E5FEC1813431F59ADFDE
:1071B000F82EFF0CEE240027F7FC0095102FE0922C
:1071C0008F01F092900100939101109392018ADF58
:1071D00090E0880F991FAA2797FDA095BA2F8E29B6
:1071E0009F29A02BB12B80938F0190939001A093A6
:1071F0009101B09392018DE0D6C1803711F483E5FF
:10720000D2C1833549F4C0E0D1E0899183DF21E028
:10721000C730D207D1F7C8C1863521F481E37ADFC0
:1072200080E3C1C1833731F487E874DF85E972DF19
:107230008EE1B9C1823631F489E56CDF80E06ADF26
:1072400080E8B1C18536B9F4E0E0F0E093E085E094
:1072500090935700E89507B600FCFDCF8093570048
:10726000E89507B600FCFDCFEF57FF4F20E7EF355D
:10727000F20771F7C0CF8C3651F434DF809599E076
:10728000E1E0F0E0082E90935700E895B4CF823704
:1072900039F4E1E0F0E089E080935700849183C104
:1072A000863439F4E0E0F0E089E08093570084917F
:1072B0007AC18E3439F4E3E0F0E089E0809357003E
:1072C000849171C1813539F4E2E0F0E089E0809386
:1072D0005700849168C1833471F400918F0110913B
:1072E000900100DF90E021E0F8010C0120935700AD
:1072F000E895112480CF833679F400918F011091A5
:1073000090010160EFDE90E021E0F8010C01209394
:107310005700E895112414C18D3661F4E0918F0176
:10732000F091900185E080935700E89507B600FC46
:10733000FDCF61CF823419F0873609F0E3C0D2DE89
:10734000E82ED0DED82ECEDEA82E8554823008F06E
:1073500029C19E2D80E0CD2DD0E0C82BD92B07363A
:1073600009F052C081E180935700E89500E011E0F8
:1073700047C0F6E4AF1611F5E02FF0E080918F01E1
:1073800090919001E82BF92BE4918E2FC3DE00231E
:1073900099F080918F0190919001A0919101B0910D
:1073A00092010296A11DB11D80938F0190939001CF
:1073B000A0939101B0939201012721C080918F0188
:1073C00090919001A0919101B0919201B695A795ED
:1073D0009795879514D59EDE80918F0190919001AD
:1073E000A0919101B09192010296A11DB11D8093CF
:1073F0008F0190939001A0939101B09392012197F6
:10740000209709F0B6CFD0C060908F0170909001A6
:10741000809091019090920126E4A21609F05EC03E
:1074200083E0F30180935700E89507B600FCFDCF99
:1074300055C0F6E4AF1669F5BB2031F100918F011C
:10744000109190014FDED82ECC24852D90E08C2910
:107450009D29F8010C0140925700E8951124809174
:107460008F0190919001A0919101B09192010296AB
:10747000A11DB11D80938F0190939001A093910164
:10748000B0939201BB2428C02DDE582EBB24B394A8
:1074900023C0E0908F01F090900100919101109134
:1074A000920116950795F794E7941CDE682FC701A3
:1074B000AED480918F0190919001A0919101B091F3
:1074C00092010296A11DB11D80938F0190939001AE
:1074D000A0939101B0939201219704C05524BB243D
:1074E00044244394209709F0A4CFF6E4AF1609F0A2
:1074F00082CE85E0F30180935700E89507B600FC43
:10750000FDCF79CE823551F4E0918F01F091900159
:1075100005911491812FFEDD802F45C08434E1F464
:10752000E0908F01F09090010091910110919201F3
:1075300016950795F794E794D5DD682FC70167D4B2
:1075400080918F0190919001A0919101B091920151
:107550000296A11DB11D47CE843611F580918F0191
:1075600090919001A0919101B0919201B695A7954B
:107570009795879544D4CEDD80918F0190919001AD
:10758000A0919101B09192010296A11DB11D80932D
:107590008F0190939001A0939101B093920104C048
:1075A0008B3111F08FE3B6DD83E08093E900909199
:1075B000E8008091E8008E778093E80095FF04C092
:1075C00010C08EB38823C9F08091E80080FFF9CF06
:1075D0008091E8008E778093E80003C08EB3882303
:1075E00061F08091E80080FFF9CF84E08093E900AA
:1075F0008091E8008B778093E800DF91CF911F9115
:107600000F91FF90EF90DF90CF90BF90AF909F9041
:107610008F907F906F905F904F900895809196012A
:107620008032B1F0813239F580919501813A19F5B6
:107630008091E800877F8093E80088E091E067E030
:1076400070E023D38091E8008B778093E800089561
:1076500080919501813279F48091E800877F809351
:10766000E80088E091E067E070E073D38091E80083
:107670008E778093E800089582E061EC42E0ADD01F
:1076800083E061E842E1A9D084E060E842E1A5C07E
:1076900084B7877F84BF88E10FB6F8948093600039
:1076A000109260000FBE80E090E020E80FB6F894E2
:1076B00020936100809361000FBE81E085BF82E06E
:1076C00085BF02C1FF920F931F93CF93DF9324B71F
:1076D00014BE809160008861809360001092600009
:1076E00010928C0130E0F901E270F07021FD0AC0C7
:1076F000859194918F5F9F4F29F0E0918D01F091DA
:107700008E010995C5DF6E9A769A7894FF2410E071
:1077100001E0E0E0F0E0C591D49121C013DD5DD33C
:10772000F39411F4100F769AF11609F476981F3F2E
:1077300011F40FEF0AC0112341F4013031F08091B0
:107740008C018F5F80938C0101E080918C018530EA
:1077500030F08FEFCF3FD80711F010920F018091DA
:107760000F018823D9F68091E00081608093E000CA
:107770002CE088E190E00FB6F894A8958093600023
:107780000FBE20936000FFCFFA01923071F093306A
:1077900089F0913029F480E191E022E130E019C0D4
:1077A00080E090E020E030E014C082E291E02EE33F
:1077B00030E00FC0882339F480916001282F30E039
:1077C00080E691E006C080916401282F30E084E6D5
:1077D00091E091838083C90108958093E9008091AD
:1077E000EB0081608093EB001092ED006093EC0061
:1077F0004093ED008091EE00881F8827881F089530
:107800008091950188238CF403C08EB38823B1F056
:107810008091E80082FFF9CF8091E8008B77809318
:10782000E80008958EB3882349F08091E80080FF36
:10783000F9CF8091E8008E778093E80008954DD0CD
:1078400054D08091D800982F9F779093D80080686B
:107850008093D8008AE482BF80E189BD89B58260C7
:1078600089BD09B400FEFDCF8091D8008F7D809343
:10787000D8001EBA109293018091E0008B7F809314
:10788000E0008091D80081608093D80080E060E0C3
:1078900042E0A3DF8091E1008E7F8093E100809140
:1078A000E20081608093E2008091E2008860809332
:1078B000E2008091E0008E7F8093E0008091D8000C
:1078C00080618093D8000895E7EDF0E080818160C9
:1078D000808381E080939401B2CFE8EDF0E0808175
:1078E0008E7F80831092E20008951092DA00109249
:1078F000E10008951F920F920FB60F9211242F935B
:107900003F934F935F936F937F938F939F93AF9327
:10791000BF93EF93FF938091DA0080FF13C08091B3
:10792000D80080FF0FC08091DA008E7F8093DA004C
:107930008091D90080FF04C081E08EBBA5D102C038
:107940001EBAA2D18091E10080FF1CC08091E200AC
:1079500080FF18C08091E1008E7F8093E1008091CC
:10796000E2008E7F8093E2008091E200806180934C
:10797000E2008091D80080628093D80019BC85E035
:107980008EBB82D18091E10084FF2DC08091E20006
:1079900084FF29C080E189BD89B5826089BD09B4B1
:1079A00000FEFDCF8091D8008F7D8093D80080911C
:1079B000E1008F7E8093E1008091E2008F7E8093D2
:1079C000E2008091E20081608093E2008091930167
:1079D000882331F48091E30087FD02C081E001C07B
:1079E00084E08EBB51D18091E10083FF21C0809162
:1079F000E20083FF1DC08091E100877F8093E1005A
:107A000082E08EBB109293018091E1008E7F809383
:107A1000E1008091E2008E7F8093E2008091E2009D
:107A200080618093E20080E060E042E0D6DE2CD10D
:107A30008091E10082FF0AC08091E20082FF06C0CF
:107A40008091E1008B7F8093E1001ED1FF91EF9147
:107A5000BF91AF919F918F917F916F915F914F9166
:107A60003F912F910F900FBE0F901F9018950F937D
:107A70001F93DF93CF9300D0CDB7DEB7E5E9F1E0F8
:107A80008091F100819381E0ED39F807C9F7809189
:107A9000950190919601953009F46DC0963040F4AF
:107AA000913081F1913070F0933009F0D7C02AC045
:107AB000983009F4A5C0993009F4B4C0963009F0A3
:107AC000CDC07EC0803809F4CAC0823809F0C6C073
:107AD0008091990187708093E9008091EB0010926A
:107AE000E9002091E800277F2093E80090E025E05E
:107AF000969587952A95E1F781708093F100109211
:107B0000F10089C0882319F0823009F0A7C08F7175
:107B1000823009F0A4C080919701882331F520912B
:107B20009901277009F49BC02093E9008091EB0034
:107B300080FF1BC0933021F48091EB00806213C062
:107B40008091EB0080618093EB0081E090E002C0C7
:107B5000880F991F2A95E2F78093EA001092EA00B5
:107B60008091EB0088608093EB001092E900809197
:107B7000E800877F53C0882309F070C010919701F7
:107B80001F770FB7F8948091E800877F8093E80013
:107B900037DE8091E80080FFFCCF112311F482E0F2
:107BA00001C083E08EBB8091E3008078182B109396
:107BB000E3008091E30080688093E3000FBF4FC033
:107BC0008058823008F04AC08091970190919801C6
:107BD00060919901AE014F5F5F4FD6DDBC01009708
:107BE00009F43DC08091E800877F8093E800898197
:107BF0009A814BD08091E8008B778093E8002FC06A
:107C0000803861F58091E800877F8093E80080915B
:107C100093018093F1008091E8008E778093E800D3
:107C2000EFDD1DC08823D1F4909197019230B8F414
:107C30008091E800877F8093E80090939301E0DDD6
:107C400080919301882331F48091E30087FD02C085
:107C500081E001C084E08EBB0FDD01C0DFDC8091DC
:107C6000E80083FF0AC08091EB0080628093EB0004
:107C70008091E800877F8093E8000F900F90CF916C
:107C8000DF911F910F91089508959C0140919B01F0
:107C900050919C014617570718F4F90190E044C031
:107CA0006115710511F0AB01F8CF8091E8008E7776
:107CB0008093E80040E050E0F0CF8EB3882309F4D1
:107CC00044C0853009F443C08091E80083FF02C0BE
:107CD00081E008958091E80082FD31C08091E80044
:107CE00080FF22C08091F3009091F200782F60E035
:107CF000292F30E0262B372B07C081918093F1008C
:107D0000415050402F5F3F4F4115510519F0283029
:107D1000310598F390E02830310509F491E0809125
:107D2000E8008E778093E8004115510531F69923DC
:107D300021F605C08EB3882341F0853041F0809153
:107D4000E80082FFF7CF80E0089582E0089583E0A5
:107D500008959C016115710529F48091E8008B77E5
:107D60008093E800F90126C08EB3882391F1853015
:107D700091F18091E80083FF02C081E00895809135
:107D8000E80082FFF1CF06C08091F100819361503D
:107D9000704059F02091F3008091F200322F20E0E2
:107DA00090E0822B932B892B79F78091E8008B77D9
:107DB0008093E80061157105B9F605C08EB388237C
:107DC00041F0853041F08091E80080FFF7CF80E0FE
:107DD000089582E0089583E008951F938EB3882369
:107DE00061F01091E9001092E9008091E80083FFB2
:107DF00001C03DDE17701093E9001F910895F999B5
:107E0000FECF92BD81BDF89A992780B50895262F9F
:107E1000F999FECF1FBA92BD81BD20BD0FB6F8946F
:107E2000FA9AF99A0FBE01960895F894FFCF4C552F
:107E300046414344430000000000000008011201D5
:107E40001001020000089A23010001000001000156
:107E500009023E0002010080320904000001020212
:107E60000100052400100104240204052406000179
:107E70000705820308000209040100020A0000004D
:107E80000705040210000007058302100000040328
:107E9000090426034100560052002000430044001C
:107EA0004300200042006F006F0074006C006F0000
:0A7EB000610064006500720000002C
:00000001FF
